{
  "_format": "hh-sol-artifact-1",
  "contractName": "SurveyRegistry",
  "sourceName": "contracts/SurveyRegistry.sol",
  "abi": [
    {
      "inputs": [],
      "name": "WriteError",
      "type": "error"
    },
    {
      "anonymous": false,
      "inputs": [
        {
          "indexed": false,
          "internalType": "uint256",
          "name": "surveyId",
          "type": "uint256"
        },
        {
          "indexed": false,
          "internalType": "address",
          "name": "actor",
          "type": "address"
        },
        {
          "indexed": false,
          "internalType": "uint256",
          "name": "ts",
          "type": "uint256"
        }
      ],
      "name": "Approved",
      "type": "event"
    },
    {
      "anonymous": false,
      "inputs": [
        {
          "indexed": false,
          "internalType": "uint256",
          "name": "surveyId",
          "type": "uint256"
        },
        {
          "indexed": false,
          "internalType": "uint256",
          "name": "index",
          "type": "uint256"
        },
        {
          "indexed": false,
          "internalType": "address",
          "name": "pointer",
          "type": "address"
        },
        {
          "indexed": false,
          "internalType": "uint256",
          "name": "size",
          "type": "uint256"
        },
        {
          "indexed": false,
          "internalType": "bytes32",
          "name": "chunkHash",
          "type": "bytes32"
        },
        {
          "indexed": false,
          "internalType": "address",
          "name": "actor",
          "type": "address"
        },
        {
          "indexed": false,
          "internalType": "uint256",
          "name": "ts",
          "type": "uint256"
        }
      ],
      "name": "EncryptedChunkStored",
      "type": "event"
    },
    {
      "anonymous": false,
      "inputs": [
        {
          "indexed": false,
          "internalType": "uint256",
          "name": "surveyId",
          "type": "uint256"
        },
        {
          "indexed": false,
          "internalType": "bytes32",
          "name": "checksum",
          "type": "bytes32"
        },
        {
          "indexed": false,
          "internalType": "address",
          "name": "actor",
          "type": "address"
        },
        {
          "indexed": false,
          "internalType": "uint256",
          "name": "ts",
          "type": "uint256"
        }
      ],
      "name": "FileAttached",
      "type": "event"
    },
    {
      "anonymous": false,
      "inputs": [
        {
          "indexed": false,
          "internalType": "uint256",
          "name": "surveyId",
          "type": "uint256"
        },
        {
          "indexed": false,
          "internalType": "uint256",
          "name": "index",
          "type": "uint256"
        },
        {
          "indexed": false,
          "internalType": "uint256",
          "name": "size",
          "type": "uint256"
        },
        {
          "indexed": false,
          "internalType": "bytes32",
          "name": "chunkHash",
          "type": "bytes32"
        },
        {
          "indexed": false,
          "internalType": "address",
          "name": "actor",
          "type": "address"
        },
        {
          "indexed": false,
          "internalType": "uint256",
          "name": "ts",
          "type": "uint256"
        }
      ],
      "name": "FileChunk",
      "type": "event"
    },
    {
      "anonymous": false,
      "inputs": [
        {
          "indexed": false,
          "internalType": "uint256",
          "name": "surveyId",
          "type": "uint256"
        },
        {
          "indexed": false,
          "internalType": "address",
          "name": "actor",
          "type": "address"
        },
        {
          "indexed": false,
          "internalType": "uint256",
          "name": "ts",
          "type": "uint256"
        }
      ],
      "name": "Rejected",
      "type": "event"
    },
    {
      "anonymous": false,
      "inputs": [
        {
          "indexed": false,
          "internalType": "uint256",
          "name": "surveyId",
          "type": "uint256"
        },
        {
          "indexed": false,
          "internalType": "uint256",
          "name": "projectId",
          "type": "uint256"
        },
        {
          "indexed": false,
          "internalType": "string",
          "name": "ipfsCid",
          "type": "string"
        },
        {
          "indexed": false,
          "internalType": "string",
          "name": "checksum",
          "type": "string"
        },
        {
          "indexed": false,
          "internalType": "address",
          "name": "actor",
          "type": "address"
        },
        {
          "indexed": false,
          "internalType": "uint256",
          "name": "ts",
          "type": "uint256"
        }
      ],
      "name": "Submitted",
      "type": "event"
    },
    {
      "inputs": [
        {
          "internalType": "uint256",
          "name": "surveyId",
          "type": "uint256"
        },
        {
          "internalType": "bytes[]",
          "name": "payloads",
          "type": "bytes[]"
        }
      ],
      "name": "addEncryptedChunks",
      "outputs": [],
      "stateMutability": "nonpayable",
      "type": "function"
    },
    {
      "inputs": [
        {
          "internalType": "uint256",
          "name": "surveyId",
          "type": "uint256"
        },
        {
          "internalType": "bytes",
          "name": "chunk",
          "type": "bytes"
        }
      ],
      "name": "addFileChunk",
      "outputs": [],
      "stateMutability": "nonpayable",
      "type": "function"
    },
    {
      "inputs": [
        {
          "internalType": "uint256",
          "name": "surveyId",
          "type": "uint256"
        },
        {
          "internalType": "bytes[]",
          "name": "chunks",
          "type": "bytes[]"
        }
      ],
      "name": "addFileChunks",
      "outputs": [],
      "stateMutability": "nonpayable",
      "type": "function"
    },
    {
      "inputs": [
        {
          "internalType": "uint256",
          "name": "surveyId",
          "type": "uint256"
        },
        {
          "internalType": "bytes32",
          "name": "checksum",
          "type": "bytes32"
        }
      ],
      "name": "addFileHash",
      "outputs": [],
      "stateMutability": "nonpayable",
      "type": "function"
    },
    {
      "inputs": [
        {
          "internalType": "uint256",
          "name": "surveyId",
          "type": "uint256"
        }
      ],
      "name": "getEncryptedChunkCount",
      "outputs": [
        {
          "internalType": "uint256",
          "name": "",
          "type": "uint256"
        }
      ],
      "stateMutability": "view",
      "type": "function"
    },
    {
      "inputs": [
        {
          "internalType": "uint256",
          "name": "surveyId",
          "type": "uint256"
        },
        {
          "internalType": "uint256",
          "name": "index",
          "type": "uint256"
        }
      ],
      "name": "getEncryptedChunkPointer",
      "outputs": [
        {
          "internalType": "address",
          "name": "",
          "type": "address"
        }
      ],
      "stateMutability": "view",
      "type": "function"
    },
    {
      "inputs": [
        {
          "internalType": "uint256",
          "name": "surveyId",
          "type": "uint256"
        },
        {
          "internalType": "uint256",
          "name": "index",
          "type": "uint256"
        }
      ],
      "name": "getFileChunk",
      "outputs": [
        {
          "internalType": "bytes",
          "name": "",
          "type": "bytes"
        }
      ],
      "stateMutability": "view",
      "type": "function"
    },
    {
      "inputs": [
        {
          "internalType": "uint256",
          "name": "surveyId",
          "type": "uint256"
        }
      ],
      "name": "getFileChunkCount",
      "outputs": [
        {
          "internalType": "uint256",
          "name": "",
          "type": "uint256"
        }
      ],
      "stateMutability": "view",
      "type": "function"
    },
    {
      "inputs": [
        {
          "internalType": "uint256",
          "name": "surveyId",
          "type": "uint256"
        }
      ],
      "name": "getFileHashes",
      "outputs": [
        {
          "internalType": "bytes32[]",
          "name": "",
          "type": "bytes32[]"
        }
      ],
      "stateMutability": "view",
      "type": "function"
    },
    {
      "inputs": [
        {
          "internalType": "uint256",
          "name": "surveyId",
          "type": "uint256"
        }
      ],
      "name": "markApproved",
      "outputs": [],
      "stateMutability": "nonpayable",
      "type": "function"
    },
    {
      "inputs": [
        {
          "internalType": "uint256",
          "name": "surveyId",
          "type": "uint256"
        }
      ],
      "name": "markRejected",
      "outputs": [],
      "stateMutability": "nonpayable",
      "type": "function"
    },
    {
      "inputs": [
        {
          "internalType": "uint256",
          "name": "surveyId",
          "type": "uint256"
        },
        {
          "internalType": "uint256",
          "name": "index",
          "type": "uint256"
        }
      ],
      "name": "readEncryptedChunk",
      "outputs": [
        {
          "internalType": "bytes",
          "name": "",
          "type": "bytes"
        }
      ],
      "stateMutability": "view",
      "type": "function"
    },
    {
      "inputs": [
        {
          "internalType": "uint256",
          "name": "surveyId",
          "type": "uint256"
        },
        {
          "internalType": "uint256",
          "name": "projectId",
          "type": "uint256"
        },
        {
          "internalType": "string",
          "name": "ipfsCid",
          "type": "string"
        },
        {
          "internalType": "string",
          "name": "checksum",
          "type": "string"
        }
      ],
      "name": "recordSubmission",
      "outputs": [],
      "stateMutability": "nonpayable",
      "type": "function"
    },
    {
      "inputs": [
        {
          "internalType": "uint256",
          "name": "",
          "type": "uint256"
        }
      ],
      "name": "surveys",
      "outputs": [
        {
          "internalType": "uint256",
          "name": "projectId",
          "type": "uint256"
        },
        {
          "internalType": "string",
          "name": "ipfsCid",
          "type": "string"
        },
        {
          "internalType": "string",
          "name": "checksum",
          "type": "string"
        },
        {
          "internalType": "enum SurveyRegistry.Status",
          "name": "status",
          "type": "uint8"
        },
        {
          "internalType": "address",
          "name": "submitter",
          "type": "address"
        }
      ],
      "stateMutability": "view",
      "type": "function"
    }
  ],
  "bytecode": "0x608060405234801561001057600080fd5b5061134b806100206000396000f3fe608060405234801561001057600080fd5b50600436106100ea5760003560e01c806358a4710e1161008c5780637284e111116100665780637284e1111461020557806384a2acd91461022557806386e68b9014610238578063af45b6ef1461025c57600080fd5b806358a4710e146101bf57806364441ac3146101df5780636cdc8720146101f257600080fd5b80632afeaf24116100c85780632afeaf2414610158578063314b91461461016b578063337b3b1c1461017e5780634c7b52eb146101ac57600080fd5b806302c0cd81146100ef57806317bf4879146101185780631d6f98cc1461012d575b600080fd5b6101026100fd366004610c7e565b61026f565b60405161010f9190610cf0565b60405180910390f35b61012b610126366004610d03565b61032f565b005b61014061013b366004610c7e565b610397565b6040516001600160a01b03909116815260200161010f565b61012b610166366004610d1c565b6103d3565b61012b610179366004610d03565b6104d4565b61019e61018c366004610d03565b60009081526003602052604090205490565b60405190815260200161010f565b6101026101ba366004610c7e565b610532565b6101d26101cd366004610d03565b61057a565b60405161010f9190610d98565b61012b6101ed366004610c7e565b6105dc565b61012b610200366004610ddc565b61067f565b61019e610213366004610d03565b60009081526002602052604090205490565b61012b610233366004610eeb565b610848565b61024b610246366004610d03565b6108e1565b60405161010f959493929190610f62565b61012b61026a366004610ddc565b610a2e565b60008281526002602052604090208054606091908390811061029357610293610fcf565b9060005260206000200180546102a890610fe5565b80601f01602080910402602001604051908101604052809291908181526020018280546102d490610fe5565b80156103215780601f106102f657610100808354040283529160200191610321565b820191906000526020600020905b81548152906001019060200180831161030457829003601f168201915b505050505090505b92915050565b60008181526020819052604090206003808201805460ff191660018302179055506040805183815233602082015242918101919091527fa56247ad485b273a6f00eb3967b74e01c4e3c52229a4330b4b3ae5b6f9db6382906060015b60405180910390a15050565b60008281526003602052604081208054839081106103b7576103b7610fcf565b6000918252602090912001546001600160a01b03169392505050565b60008381526020819052604090206003015461010090046001600160a01b03166104185760405162461bcd60e51b815260040161040f90611019565b60405180910390fd5b600083815260026020908152604082208054600181018255908352912001610441828483611094565b5060008381526002602052604081205461045d90600190611155565b90507f0be5622da9e0689f3b8c369a9913db27a1e1a165852981f807e29007bd88871a8482858590508686604051610496929190611176565b6040805191829003822094825260208201939093529182015260608101919091523360808201524260a082015260c00160405180910390a150505050565b6000818152602081815260409182902060038101805460ff191660021790558251848152339281019290925242928201929092527f7060996319a743911fa38fcb4f926382972b1bcd6abeea1bd65adeb620d5dfdf9060600161038b565b60008281526003602052604090208054606091610573918490811061055957610559610fcf565b6000918252602090912001546001600160a01b0316610b9f565b9392505050565b6000818152600160209081526040918290208054835181840281018401909452808452606093928301828280156105d057602002820191906000526020600020905b8154815260200190600101908083116105bc575b50505050509050919050565b60008281526020819052604090206003015461010090046001600160a01b03166106185760405162461bcd60e51b815260040161040f90611019565b600082815260016020818152604080842080549384018155845292819020909101839055815184815290810183905233918101919091524260608201527f63b8e0b5acbdbfbd5249311047430b7e5bd42df5ffc4523d2c08d5157f3adce09060800161038b565b60008381526020819052604090206003015461010090046001600160a01b03166106bb5760405162461bcd60e51b815260040161040f90611019565b60005b818110156108425760006107298484848181106106dd576106dd610fcf565b90506020028101906106ef9190611186565b8080601f016020809104026020016040519081016040528093929190818152602001838380828437600092019190915250610c1b92505050565b600086815260036020908152604082208054600180820183558285529284200180546001600160a01b0319166001600160a01b0386161790559188905290549192507f30fed3b2bb9b506b54afd4b2616962edec33be4dc957c6d84185e735f44737e591879161079891611155565b838787878181106107ab576107ab610fcf565b90506020028101906107bd9190611186565b90508888888181106107d1576107d1610fcf565b90506020028101906107e39190611186565b6040516107f1929190611176565b6040805191829003822095825260208201949094526001600160a01b039290921682840152606082015260808101929092523360a08301524260c0830152519081900360e00190a1506001016106be565b50505050565b60008481526020819052604090208381556001810161086784826111d4565b506002810161087683826111d4565b50600381018054610100339081026001600160a81b0319909216919091176001179091556040517f291a23c70bded62842399090cf50918c0254dd7a56b2f12cb637ad71df5ebec8916108d29188918891889188914290611294565b60405180910390a15050505050565b6000602081905290815260409020805460018201805491929161090390610fe5565b80601f016020809104026020016040519081016040528092919081815260200182805461092f90610fe5565b801561097c5780601f106109515761010080835404028352916020019161097c565b820191906000526020600020905b81548152906001019060200180831161095f57829003601f168201915b50505050509080600201805461099190610fe5565b80601f01602080910402602001604051908101604052809291908181526020018280546109bd90610fe5565b8015610a0a5780601f106109df57610100808354040283529160200191610a0a565b820191906000526020600020905b8154815290600101906020018083116109ed57829003601f168201915b5050506003909301549192505060ff8116906001600160a01b036101009091041685565b60008381526020819052604090206003015461010090046001600160a01b0316610a6a5760405162461bcd60e51b815260040161040f90611019565b60005b81811015610842576000848152600260205260409020838383818110610a9557610a95610fcf565b9050602002810190610aa79190611186565b82546001810184556000938452602090932090920191610ac79183611094565b506000848152600260205260409020547f0be5622da9e0689f3b8c369a9913db27a1e1a165852981f807e29007bd88871a908590610b0790600190611155565b858585818110610b1957610b19610fcf565b9050602002810190610b2b9190611186565b9050868686818110610b3f57610b3f610fcf565b9050602002810190610b519190611186565b604051610b5f929190611176565b6040805191829003822094825260208201939093529182015260608101919091523360808201524260a082015260c00160405180910390a1600101610a6d565b6060813b6000819003610bc2575050604080516020810190915260008152919050565b600019018067ffffffffffffffff811115610bdf57610bdf610e48565b6040519080825280601f01601f191660200182016040528015610c09576020820181803683370190505b50915080600160208401853c50919050565b600080600060f81b83604051602001610c359291906112e4565b60405160208183030381529060405290508051602082016000f091506001600160a01b038216610c785760405163046a55db60e11b815260040160405180910390fd5b50919050565b60008060408385031215610c9157600080fd5b50508035926020909101359150565b60005b83811015610cbb578181015183820152602001610ca3565b50506000910152565b60008151808452610cdc816020860160208601610ca0565b601f01601f19169290920160200192915050565b6020815260006105736020830184610cc4565b600060208284031215610d1557600080fd5b5035919050565b600080600060408486031215610d3157600080fd5b83359250602084013567ffffffffffffffff80821115610d5057600080fd5b818601915086601f830112610d6457600080fd5b813581811115610d7357600080fd5b876020828501011115610d8557600080fd5b6020830194508093505050509250925092565b6020808252825182820181905260009190848201906040850190845b81811015610dd057835183529284019291840191600101610db4565b50909695505050505050565b600080600060408486031215610df157600080fd5b83359250602084013567ffffffffffffffff80821115610e1057600080fd5b818601915086601f830112610e2457600080fd5b813581811115610e3357600080fd5b8760208260051b8501011115610d8557600080fd5b634e487b7160e01b600052604160045260246000fd5b600082601f830112610e6f57600080fd5b813567ffffffffffffffff80821115610e8a57610e8a610e48565b604051601f8301601f19908116603f01168101908282118183101715610eb257610eb2610e48565b81604052838152866020858801011115610ecb57600080fd5b836020870160208301376000602085830101528094505050505092915050565b60008060008060808587031215610f0157600080fd5b8435935060208501359250604085013567ffffffffffffffff80821115610f2757600080fd5b610f3388838901610e5e565b93506060870135915080821115610f4957600080fd5b50610f5687828801610e5e565b91505092959194509250565b85815260a060208201526000610f7b60a0830187610cc4565b8281036040840152610f8d8187610cc4565b91505060048410610fae57634e487b7160e01b600052602160045260246000fd5b60608201939093526001600160a01b03919091166080909101529392505050565b634e487b7160e01b600052603260045260246000fd5b600181811c90821680610ff957607f821691505b602082108103610c7857634e487b7160e01b600052602260045260246000fd5b60208082526010908201526f14d55495915657d393d517d193d5539160821b604082015260600190565b601f82111561108f576000816000526020600020601f850160051c8101602086101561106c5750805b601f850160051c820191505b8181101561108b57828155600101611078565b5050505b505050565b67ffffffffffffffff8311156110ac576110ac610e48565b6110c0836110ba8354610fe5565b83611043565b6000601f8411600181146110f457600085156110dc5750838201355b600019600387901b1c1916600186901b17835561114e565b600083815260209020601f19861690835b828110156111255786850135825560209485019460019092019101611105565b50868210156111425760001960f88860031b161c19848701351681555b505060018560011b0183555b5050505050565b8181038181111561032957634e487b7160e01b600052601160045260246000fd5b8183823760009101908152919050565b6000808335601e1984360301811261119d57600080fd5b83018035915067ffffffffffffffff8211156111b857600080fd5b6020019150368190038213156111cd57600080fd5b9250929050565b815167ffffffffffffffff8111156111ee576111ee610e48565b611202816111fc8454610fe5565b84611043565b602080601f831160018114611237576000841561121f5750858301515b600019600386901b1c1916600185901b17855561108b565b600085815260208120601f198616915b8281101561126657888601518255948401946001909101908401611247565b50858210156112845787850151600019600388901b60f8161c191681555b5050505050600190811b01905550565b86815285602082015260c0604082015260006112b360c0830187610cc4565b82810360608401526112c58187610cc4565b6001600160a01b03959095166080840152505060a00152949350505050565b6001600160f81b0319831681528151600090611307816001850160208701610ca0565b91909101600101939250505056fea26469706673582212201dc484fa4543f9355187fa80f6f20d3eac36b49ba8d87653fd695e3a34ac72c364736f6c63430008180033",
  "linkReferences": {},
  "deployedLinkReferences": {}
}