{"contracts/SurveyRegistry.sol":{"SurveyRegistry":{"abi":[{"inputs":[],"name":"WriteError","type":"error"},{"anonymous":false,"inputs":[{"indexed":false,"internalType":"uint256","name":"surveyId","type":"uint256"},{"indexed":false,"internalType":"address","name":"actor","type":"address"},{"indexed":false,"internalType":"uint256","name":"ts","type":"uint256"}],"name":"Approved","type":"event"},{"anonymous":false,"inputs":[{"indexed":false,"internalType":"uint256","name":"surveyId","type":"uint256"},{"indexed":false,"internalType":"uint256","name":"index","type":"uint256"},{"indexed":false,"internalType":"address","name":"pointer","type":"address"},{"indexed":false,"internalType":"uint256","name":"size","type":"uint256"},{"indexed":false,"internalType":"bytes32","name":"chunkHash","type":"bytes32"},{"indexed":false,"internalType":"address","name":"actor","type":"address"},{"indexed":false,"internalType":"uint256","name":"ts","type":"uint256"}],"name":"EncryptedChunkStored","type":"event"},{"anonymous":false,"inputs":[{"indexed":false,"internalType":"uint256","name":"surveyId","type":"uint256"},{"indexed":false,"internalType":"bytes32","name":"checksum","type":"bytes32"},{"indexed":false,"internalType":"address","name":"actor","type":"address"},{"indexed":false,"internalType":"uint256","name":"ts","type":"uint256"}],"name":"FileAttached","type":"event"},{"anonymous":false,"inputs":[{"indexed":false,"internalType":"uint256","name":"surveyId","type":"uint256"},{"indexed":false,"internalType":"uint256","name":"index","type":"uint256"},{"indexed":false,"internalType":"uint256","name":"size","type":"uint256"},{"indexed":false,"internalType":"bytes32","name":"chunkHash","type":"bytes32"},{"indexed":false,"internalType":"address","name":"actor","type":"address"},{"indexed":false,"internalType":"uint256","name":"ts","type":"uint256"}],"name":"FileChunk","type":"event"},{"anonymous":false,"inputs":[{"indexed":false,"internalType":"uint256","name":"surveyId","type":"uint256"},{"indexed":false,"internalType":"address","name":"actor","type":"address"},{"indexed":false,"internalType":"uint256","name":"ts","type":"uint256"}],"name":"Rejected","type":"event"},{"anonymous":false,"inputs":[{"indexed":false,"internalType":"uint256","name":"surveyId","type":"uint256"},{"indexed":false,"internalType":"uint256","name":"projectId","type":"uint256"},{"indexed":false,"internalType":"string","name":"ipfsCid","type":"string"},{"indexed":false,"internalType":"string","name":"checksum","type":"string"},{"indexed":false,"internalType":"address","name":"actor","type":"address"},{"indexed":false,"internalType":"uint256","name":"ts","type":"uint256"}],"name":"Submitted","type":"event"},{"inputs":[{"internalType":"uint256","name":"surveyId","type":"uint256"},{"internalType":"bytes[]","name":"payloads","type":"bytes[]"}],"name":"addEncryptedChunks","outputs":[],"stateMutability":"nonpayable","type":"function"},{"inputs":[{"internalType":"uint256","name":"surveyId","type":"uint256"},{"internalType":"bytes","name":"chunk","type":"bytes"}],"name":"addFileChunk","outputs":[],"stateMutability":"nonpayable","type":"function"},{"inputs":[{"internalType":"uint256","name":"surveyId","type":"uint256"},{"internalType":"bytes[]","name":"chunks","type":"bytes[]"}],"name":"addFileChunks","outputs":[],"stateMutability":"nonpayable","type":"function"},{"inputs":[{"internalType":"uint256","name":"surveyId","type":"uint256"},{"internalType":"bytes32","name":"checksum","type":"bytes32"}],"name":"addFileHash","outputs":[],"stateMutability":"nonpayable","type":"function"},{"inputs":[{"internalType":"uint256","name":"surveyId","type":"uint256"}],"name":"getEncryptedChunkCount","outputs":[{"internalType":"uint256","name":"","type":"uint256"}],"stateMutability":"view","type":"function"},{"inputs":[{"internalType":"uint256","name":"surveyId","type":"uint256"},{"internalType":"uint256","name":"index","type":"uint256"}],"name":"getEncryptedChunkPointer","outputs":[{"internalType":"address","name":"","type":"address"}],"stateMutability":"view","type":"function"},{"inputs":[{"internalType":"uint256","name":"surveyId","type":"uint256"},{"internalType":"uint256","name":"index","type":"uint256"}],"name":"getFileChunk","outputs":[{"internalType":"bytes","name":"","type":"bytes"}],"stateMutability":"view","type":"function"},{"inputs":[{"internalType":"uint256","name":"surveyId","type":"uint256"}],"name":"getFileChunkCount","outputs":[{"internalType":"uint256","name":"","type":"uint256"}],"stateMutability":"view","type":"function"},{"inputs":[{"internalType":"uint256","name":"surveyId","type":"uint256"}],"name":"getFileHashes","outputs":[{"internalType":"bytes32[]","name":"","type":"bytes32[]"}],"stateMutability":"view","type":"function"},{"inputs":[{"internalType":"uint256","name":"surveyId","type":"uint256"}],"name":"markApproved","outputs":[],"stateMutability":"nonpayable","type":"function"},{"inputs":[{"internalType":"uint256","name":"surveyId","type":"uint256"}],"name":"markRejected","outputs":[],"stateMutability":"nonpayable","type":"function"},{"inputs":[{"internalType":"uint256","name":"surveyId","type":"uint256"},{"internalType":"uint256","name":"index","type":"uint256"}],"name":"readEncryptedChunk","outputs":[{"internalType":"bytes","name":"","type":"bytes"}],"stateMutability":"view","type":"function"},{"inputs":[{"internalType":"uint256","name":"surveyId","type":"uint256"},{"internalType":"uint256","name":"projectId","type":"uint256"},{"internalType":"string","name":"ipfsCid","type":"string"},{"internalType":"string","name":"checksum","type":"string"}],"name":"recordSubmission","outputs":[],"stateMutability":"nonpayable","type":"function"},{"inputs":[{"internalType":"uint256","name":"","type":"uint256"}],"name":"surveys","outputs":[{"internalType":"uint256","name":"projectId","type":"uint256"},{"internalType":"string","name":"ipfsCid","type":"string"},{"internalType":"string","name":"checksum","type":"string"},{"internalType":"enum SurveyRegistry.Status","name":"status","type":"uint8"},{"internalType":"address","name":"submitter","type":"address"}],"stateMutability":"view","type":"function"}],"evm":{"bytecode":{"linkReferences":{},"object":"608060405234801561001057600080fd5b5061134b806100206000396000f3fe608060405234801561001057600080fd5b50600436106100ea5760003560e01c806358a4710e1161008c5780637284e111116100665780637284e1111461020557806384a2acd91461022557806386e68b9014610238578063af45b6ef1461025c57600080fd5b806358a4710e146101bf57806364441ac3146101df5780636cdc8720146101f257600080fd5b80632afeaf24116100c85780632afeaf2414610158578063314b91461461016b578063337b3b1c1461017e5780634c7b52eb146101ac57600080fd5b806302c0cd81146100ef57806317bf4879146101185780631d6f98cc1461012d575b600080fd5b6101026100fd366004610c7e565b61026f565b60405161010f9190610cf0565b60405180910390f35b61012b610126366004610d03565b61032f565b005b61014061013b366004610c7e565b610397565b6040516001600160a01b03909116815260200161010f565b61012b610166366004610d1c565b6103d3565b61012b610179366004610d03565b6104d4565b61019e61018c366004610d03565b60009081526003602052604090205490565b60405190815260200161010f565b6101026101ba366004610c7e565b610532565b6101d26101cd366004610d03565b61057a565b60405161010f9190610d98565b61012b6101ed366004610c7e565b6105dc565b61012b610200366004610ddc565b61067f565b61019e610213366004610d03565b60009081526002602052604090205490565b61012b610233366004610eeb565b610848565b61024b610246366004610d03565b6108e1565b60405161010f959493929190610f62565b61012b61026a366004610ddc565b610a2e565b60008281526002602052604090208054606091908390811061029357610293610fcf565b9060005260206000200180546102a890610fe5565b80601f01602080910402602001604051908101604052809291908181526020018280546102d490610fe5565b80156103215780601f106102f657610100808354040283529160200191610321565b820191906000526020600020905b81548152906001019060200180831161030457829003601f168201915b505050505090505b92915050565b60008181526020819052604090206003808201805460ff191660018302179055506040805183815233602082015242918101919091527fa56247ad485b273a6f00eb3967b74e01c4e3c52229a4330b4b3ae5b6f9db6382906060015b60405180910390a15050565b60008281526003602052604081208054839081106103b7576103b7610fcf565b6000918252602090912001546001600160a01b03169392505050565b60008381526020819052604090206003015461010090046001600160a01b03166104185760405162461bcd60e51b815260040161040f90611019565b60405180910390fd5b600083815260026020908152604082208054600181018255908352912001610441828483611094565b5060008381526002602052604081205461045d90600190611155565b90507f0be5622da9e0689f3b8c369a9913db27a1e1a165852981f807e29007bd88871a8482858590508686604051610496929190611176565b6040805191829003822094825260208201939093529182015260608101919091523360808201524260a082015260c00160405180910390a150505050565b6000818152602081815260409182902060038101805460ff191660021790558251848152339281019290925242928201929092527f7060996319a743911fa38fcb4f926382972b1bcd6abeea1bd65adeb620d5dfdf9060600161038b565b60008281526003602052604090208054606091610573918490811061055957610559610fcf565b6000918252602090912001546001600160a01b0316610b9f565b9392505050565b6000818152600160209081526040918290208054835181840281018401909452808452606093928301828280156105d057602002820191906000526020600020905b8154815260200190600101908083116105bc575b50505050509050919050565b60008281526020819052604090206003015461010090046001600160a01b03166106185760405162461bcd60e51b815260040161040f90611019565b600082815260016020818152604080842080549384018155845292819020909101839055815184815290810183905233918101919091524260608201527f63b8e0b5acbdbfbd5249311047430b7e5bd42df5ffc4523d2c08d5157f3adce09060800161038b565b60008381526020819052604090206003015461010090046001600160a01b03166106bb5760405162461bcd60e51b815260040161040f90611019565b60005b818110156108425760006107298484848181106106dd576106dd610fcf565b90506020028101906106ef9190611186565b8080601f016020809104026020016040519081016040528093929190818152602001838380828437600092019190915250610c1b92505050565b600086815260036020908152604082208054600180820183558285529284200180546001600160a01b0319166001600160a01b0386161790559188905290549192507f30fed3b2bb9b506b54afd4b2616962edec33be4dc957c6d84185e735f44737e591879161079891611155565b838787878181106107ab576107ab610fcf565b90506020028101906107bd9190611186565b90508888888181106107d1576107d1610fcf565b90506020028101906107e39190611186565b6040516107f1929190611176565b6040805191829003822095825260208201949094526001600160a01b039290921682840152606082015260808101929092523360a08301524260c0830152519081900360e00190a1506001016106be565b50505050565b60008481526020819052604090208381556001810161086784826111d4565b506002810161087683826111d4565b50600381018054610100339081026001600160a81b0319909216919091176001179091556040517f291a23c70bded62842399090cf50918c0254dd7a56b2f12cb637ad71df5ebec8916108d29188918891889188914290611294565b60405180910390a15050505050565b6000602081905290815260409020805460018201805491929161090390610fe5565b80601f016020809104026020016040519081016040528092919081815260200182805461092f90610fe5565b801561097c5780601f106109515761010080835404028352916020019161097c565b820191906000526020600020905b81548152906001019060200180831161095f57829003601f168201915b50505050509080600201805461099190610fe5565b80601f01602080910402602001604051908101604052809291908181526020018280546109bd90610fe5565b8015610a0a5780601f106109df57610100808354040283529160200191610a0a565b820191906000526020600020905b8154815290600101906020018083116109ed57829003601f168201915b5050506003909301549192505060ff8116906001600160a01b036101009091041685565b60008381526020819052604090206003015461010090046001600160a01b0316610a6a5760405162461bcd60e51b815260040161040f90611019565b60005b81811015610842576000848152600260205260409020838383818110610a9557610a95610fcf565b9050602002810190610aa79190611186565b82546001810184556000938452602090932090920191610ac79183611094565b506000848152600260205260409020547f0be5622da9e0689f3b8c369a9913db27a1e1a165852981f807e29007bd88871a908590610b0790600190611155565b858585818110610b1957610b19610fcf565b9050602002810190610b2b9190611186565b9050868686818110610b3f57610b3f610fcf565b9050602002810190610b519190611186565b604051610b5f929190611176565b6040805191829003822094825260208201939093529182015260608101919091523360808201524260a082015260c00160405180910390a1600101610a6d565b6060813b6000819003610bc2575050604080516020810190915260008152919050565b600019018067ffffffffffffffff811115610bdf57610bdf610e48565b6040519080825280601f01601f191660200182016040528015610c09576020820181803683370190505b50915080600160208401853c50919050565b600080600060f81b83604051602001610c359291906112e4565b60405160208183030381529060405290508051602082016000f091506001600160a01b038216610c785760405163046a55db60e11b815260040160405180910390fd5b50919050565b60008060408385031215610c9157600080fd5b50508035926020909101359150565b60005b83811015610cbb578181015183820152602001610ca3565b50506000910152565b60008151808452610cdc816020860160208601610ca0565b601f01601f19169290920160200192915050565b6020815260006105736020830184610cc4565b600060208284031215610d1557600080fd5b5035919050565b600080600060408486031215610d3157600080fd5b83359250602084013567ffffffffffffffff80821115610d5057600080fd5b818601915086601f830112610d6457600080fd5b813581811115610d7357600080fd5b876020828501011115610d8557600080fd5b6020830194508093505050509250925092565b6020808252825182820181905260009190848201906040850190845b81811015610dd057835183529284019291840191600101610db4565b50909695505050505050565b600080600060408486031215610df157600080fd5b83359250602084013567ffffffffffffffff80821115610e1057600080fd5b818601915086601f830112610e2457600080fd5b813581811115610e3357600080fd5b8760208260051b8501011115610d8557600080fd5b634e487b7160e01b600052604160045260246000fd5b600082601f830112610e6f57600080fd5b813567ffffffffffffffff80821115610e8a57610e8a610e48565b604051601f8301601f19908116603f01168101908282118183101715610eb257610eb2610e48565b81604052838152866020858801011115610ecb57600080fd5b836020870160208301376000602085830101528094505050505092915050565b60008060008060808587031215610f0157600080fd5b8435935060208501359250604085013567ffffffffffffffff80821115610f2757600080fd5b610f3388838901610e5e565b93506060870135915080821115610f4957600080fd5b50610f5687828801610e5e565b91505092959194509250565b85815260a060208201526000610f7b60a0830187610cc4565b8281036040840152610f8d8187610cc4565b91505060048410610fae57634e487b7160e01b600052602160045260246000fd5b60608201939093526001600160a01b03919091166080909101529392505050565b634e487b7160e01b600052603260045260246000fd5b600181811c90821680610ff957607f821691505b602082108103610c7857634e487b7160e01b600052602260045260246000fd5b60208082526010908201526f14d55495915657d393d517d193d5539160821b604082015260600190565b601f82111561108f576000816000526020600020601f850160051c8101602086101561106c5750805b601f850160051c820191505b8181101561108b57828155600101611078565b5050505b505050565b67ffffffffffffffff8311156110ac576110ac610e48565b6110c0836110ba8354610fe5565b83611043565b6000601f8411600181146110f457600085156110dc5750838201355b600019600387901b1c1916600186901b17835561114e565b600083815260209020601f19861690835b828110156111255786850135825560209485019460019092019101611105565b50868210156111425760001960f88860031b161c19848701351681555b505060018560011b0183555b5050505050565b8181038181111561032957634e487b7160e01b600052601160045260246000fd5b8183823760009101908152919050565b6000808335601e1984360301811261119d57600080fd5b83018035915067ffffffffffffffff8211156111b857600080fd5b6020019150368190038213156111cd57600080fd5b9250929050565b815167ffffffffffffffff8111156111ee576111ee610e48565b611202816111fc8454610fe5565b84611043565b602080601f831160018114611237576000841561121f5750858301515b600019600386901b1c1916600185901b17855561108b565b600085815260208120601f198616915b8281101561126657888601518255948401946001909101908401611247565b50858210156112845787850151600019600388901b60f8161c191681555b5050505050600190811b01905550565b86815285602082015260c0604082015260006112b360c0830187610cc4565b82810360608401526112c58187610cc4565b6001600160a01b03959095166080840152505060a00152949350505050565b6001600160f81b0319831681528151600090611307816001850160208701610ca0565b91909101600101939250505056fea26469706673582212201dc484fa4543f9355187fa80f6f20d3eac36b49ba8d87653fd695e3a34ac72c364736f6c63430008180033","opcodes":"PUSH1 0x80 PUSH1 0x40 MSTORE CALLVALUE DUP1 ISZERO PUSH2 0x10 JUMPI PUSH1 0x0 DUP1 REVERT JUMPDEST POP PUSH2 0x134B DUP1 PUSH2 0x20 PUSH1 0x0 CODECOPY PUSH1 0x0 RETURN INVALID PUSH1 0x80 PUSH1 0x40 MSTORE CALLVALUE DUP1 ISZERO PUSH2 0x10 JUMPI PUSH1 0x0 DUP1 REVERT JUMPDEST POP PUSH1 0x4 CALLDATASIZE LT PUSH2 0xEA JUMPI PUSH1 0x0 CALLDATALOAD PUSH1 0xE0 SHR DUP1 PUSH4 0x58A4710E GT PUSH2 0x8C JUMPI DUP1 PUSH4 0x7284E111 GT PUSH2 0x66 JUMPI DUP1 PUSH4 0x7284E111 EQ PUSH2 0x205 JUMPI DUP1 PUSH4 0x84A2ACD9 EQ PUSH2 0x225 JUMPI DUP1 PUSH4 0x86E68B90 EQ PUSH2 0x238 JUMPI DUP1 PUSH4 0xAF45B6EF EQ PUSH2 0x25C JUMPI PUSH1 0x0 DUP1 REVERT JUMPDEST DUP1 PUSH4 0x58A4710E EQ PUSH2 0x1BF JUMPI DUP1 PUSH4 0x64441AC3 EQ PUSH2 0x1DF JUMPI DUP1 PUSH4 0x6CDC8720 EQ PUSH2 0x1F2 JUMPI PUSH1 0x0 DUP1 REVERT JUMPDEST DUP1 PUSH4 0x2AFEAF24 GT PUSH2 0xC8 JUMPI DUP1 PUSH4 0x2AFEAF24 EQ PUSH2 0x158 JUMPI DUP1 PUSH4 0x314B9146 EQ PUSH2 0x16B JUMPI DUP1 PUSH4 0x337B3B1C EQ PUSH2 0x17E JUMPI DUP1 PUSH4 0x4C7B52EB EQ PUSH2 0x1AC JUMPI PUSH1 0x0 DUP1 REVERT JUMPDEST DUP1 PUSH4 0x2C0CD81 EQ PUSH2 0xEF JUMPI DUP1 PUSH4 0x17BF4879 EQ PUSH2 0x118 JUMPI DUP1 PUSH4 0x1D6F98CC EQ PUSH2 0x12D JUMPI JUMPDEST PUSH1 0x0 DUP1 REVERT JUMPDEST PUSH2 0x102 PUSH2 0xFD CALLDATASIZE PUSH1 0x4 PUSH2 0xC7E JUMP JUMPDEST PUSH2 0x26F JUMP JUMPDEST PUSH1 0x40 MLOAD PUSH2 0x10F SWAP2 SWAP1 PUSH2 0xCF0 JUMP JUMPDEST PUSH1 0x40 MLOAD DUP1 SWAP2 SUB SWAP1 RETURN JUMPDEST PUSH2 0x12B PUSH2 0x126 CALLDATASIZE PUSH1 0x4 PUSH2 0xD03 JUMP JUMPDEST PUSH2 0x32F JUMP JUMPDEST STOP JUMPDEST PUSH2 0x140 PUSH2 0x13B CALLDATASIZE PUSH1 0x4 PUSH2 0xC7E JUMP JUMPDEST PUSH2 0x397 JUMP JUMPDEST PUSH1 0x40 MLOAD PUSH1 0x1 PUSH1 0x1 PUSH1 0xA0 SHL SUB SWAP1 SWAP2 AND DUP2 MSTORE PUSH1 0x20 ADD PUSH2 0x10F JUMP JUMPDEST PUSH2 0x12B PUSH2 0x166 CALLDATASIZE PUSH1 0x4 PUSH2 0xD1C JUMP JUMPDEST PUSH2 0x3D3 JUMP JUMPDEST PUSH2 0x12B PUSH2 0x179 CALLDATASIZE PUSH1 0x4 PUSH2 0xD03 JUMP JUMPDEST PUSH2 0x4D4 JUMP JUMPDEST PUSH2 0x19E PUSH2 0x18C CALLDATASIZE PUSH1 0x4 PUSH2 0xD03 JUMP JUMPDEST PUSH1 0x0 SWAP1 DUP2 MSTORE PUSH1 0x3 PUSH1 0x20 MSTORE PUSH1 0x40 SWAP1 KECCAK256 SLOAD SWAP1 JUMP JUMPDEST PUSH1 0x40 MLOAD SWAP1 DUP2 MSTORE PUSH1 0x20 ADD PUSH2 0x10F JUMP JUMPDEST PUSH2 0x102 PUSH2 0x1BA CALLDATASIZE PUSH1 0x4 PUSH2 0xC7E JUMP JUMPDEST PUSH2 0x532 JUMP JUMPDEST PUSH2 0x1D2 PUSH2 0x1CD CALLDATASIZE PUSH1 0x4 PUSH2 0xD03 JUMP JUMPDEST PUSH2 0x57A JUMP JUMPDEST PUSH1 0x40 MLOAD PUSH2 0x10F SWAP2 SWAP1 PUSH2 0xD98 JUMP JUMPDEST PUSH2 0x12B PUSH2 0x1ED CALLDATASIZE PUSH1 0x4 PUSH2 0xC7E JUMP JUMPDEST PUSH2 0x5DC JUMP JUMPDEST PUSH2 0x12B PUSH2 0x200 CALLDATASIZE PUSH1 0x4 PUSH2 0xDDC JUMP JUMPDEST PUSH2 0x67F JUMP JUMPDEST PUSH2 0x19E PUSH2 0x213 CALLDATASIZE PUSH1 0x4 PUSH2 0xD03 JUMP JUMPDEST PUSH1 0x0 SWAP1 DUP2 MSTORE PUSH1 0x2 PUSH1 0x20 MSTORE PUSH1 0x40 SWAP1 KECCAK256 SLOAD SWAP1 JUMP JUMPDEST PUSH2 0x12B PUSH2 0x233 CALLDATASIZE PUSH1 0x4 PUSH2 0xEEB JUMP JUMPDEST PUSH2 0x848 JUMP JUMPDEST PUSH2 0x24B PUSH2 0x246 CALLDATASIZE PUSH1 0x4 PUSH2 0xD03 JUMP JUMPDEST PUSH2 0x8E1 JUMP JUMPDEST PUSH1 0x40 MLOAD PUSH2 0x10F SWAP6 SWAP5 SWAP4 SWAP3 SWAP2 SWAP1 PUSH2 0xF62 JUMP JUMPDEST PUSH2 0x12B PUSH2 0x26A CALLDATASIZE PUSH1 0x4 PUSH2 0xDDC JUMP JUMPDEST PUSH2 0xA2E JUMP JUMPDEST PUSH1 0x0 DUP3 DUP2 MSTORE PUSH1 0x2 PUSH1 0x20 MSTORE PUSH1 0x40 SWAP1 KECCAK256 DUP1 SLOAD PUSH1 0x60 SWAP2 SWAP1 DUP4 SWAP1 DUP2 LT PUSH2 0x293 JUMPI PUSH2 0x293 PUSH2 0xFCF JUMP JUMPDEST SWAP1 PUSH1 0x0 MSTORE PUSH1 0x20 PUSH1 0x0 KECCAK256 ADD DUP1 SLOAD PUSH2 0x2A8 SWAP1 PUSH2 0xFE5 JUMP JUMPDEST DUP1 PUSH1 0x1F ADD PUSH1 0x20 DUP1 SWAP2 DIV MUL PUSH1 0x20 ADD PUSH1 0x40 MLOAD SWAP1 DUP2 ADD PUSH1 0x40 MSTORE DUP1 SWAP3 SWAP2 SWAP1 DUP2 DUP2 MSTORE PUSH1 0x20 ADD DUP3 DUP1 SLOAD PUSH2 0x2D4 SWAP1 PUSH2 0xFE5 JUMP JUMPDEST DUP1 ISZERO PUSH2 0x321 JUMPI DUP1 PUSH1 0x1F LT PUSH2 0x2F6 JUMPI PUSH2 0x100 DUP1 DUP4 SLOAD DIV MUL DUP4 MSTORE SWAP2 PUSH1 0x20 ADD SWAP2 PUSH2 0x321 JUMP JUMPDEST DUP3 ADD SWAP2 SWAP1 PUSH1 0x0 MSTORE PUSH1 0x20 PUSH1 0x0 KECCAK256 SWAP1 JUMPDEST DUP2 SLOAD DUP2 MSTORE SWAP1 PUSH1 0x1 ADD SWAP1 PUSH1 0x20 ADD DUP1 DUP4 GT PUSH2 0x304 JUMPI DUP3 SWAP1 SUB PUSH1 0x1F AND DUP3 ADD SWAP2 JUMPDEST POP POP POP POP POP SWAP1 POP JUMPDEST SWAP3 SWAP2 POP POP JUMP JUMPDEST PUSH1 0x0 DUP2 DUP2 MSTORE PUSH1 0x20 DUP2 SWAP1 MSTORE PUSH1 0x40 SWAP1 KECCAK256 PUSH1 0x3 DUP1 DUP3 ADD DUP1 SLOAD PUSH1 0xFF NOT AND PUSH1 0x1 DUP4 MUL OR SWAP1 SSTORE POP PUSH1 0x40 DUP1 MLOAD DUP4 DUP2 MSTORE CALLER PUSH1 0x20 DUP3 ADD MSTORE TIMESTAMP SWAP2 DUP2 ADD SWAP2 SWAP1 SWAP2 MSTORE PUSH32 0xA56247AD485B273A6F00EB3967B74E01C4E3C52229A4330B4B3AE5B6F9DB6382 SWAP1 PUSH1 0x60 ADD JUMPDEST PUSH1 0x40 MLOAD DUP1 SWAP2 SUB SWAP1 LOG1 POP POP JUMP JUMPDEST PUSH1 0x0 DUP3 DUP2 MSTORE PUSH1 0x3 PUSH1 0x20 MSTORE PUSH1 0x40 DUP2 KECCAK256 DUP1 SLOAD DUP4 SWAP1 DUP2 LT PUSH2 0x3B7 JUMPI PUSH2 0x3B7 PUSH2 0xFCF JUMP JUMPDEST PUSH1 0x0 SWAP2 DUP3 MSTORE PUSH1 0x20 SWAP1 SWAP2 KECCAK256 ADD SLOAD PUSH1 0x1 PUSH1 0x1 PUSH1 0xA0 SHL SUB AND SWAP4 SWAP3 POP POP POP JUMP JUMPDEST PUSH1 0x0 DUP4 DUP2 MSTORE PUSH1 0x20 DUP2 SWAP1 MSTORE PUSH1 0x40 SWAP1 KECCAK256 PUSH1 0x3 ADD SLOAD PUSH2 0x100 SWAP1 DIV PUSH1 0x1 PUSH1 0x1 PUSH1 0xA0 SHL SUB AND PUSH2 0x418 JUMPI PUSH1 0x40 MLOAD PUSH3 0x461BCD PUSH1 0xE5 SHL DUP2 MSTORE PUSH1 0x4 ADD PUSH2 0x40F SWAP1 PUSH2 0x1019 JUMP JUMPDEST PUSH1 0x40 MLOAD DUP1 SWAP2 SUB SWAP1 REVERT JUMPDEST PUSH1 0x0 DUP4 DUP2 MSTORE PUSH1 0x2 PUSH1 0x20 SWAP1 DUP2 MSTORE PUSH1 0x40 DUP3 KECCAK256 DUP1 SLOAD PUSH1 0x1 DUP2 ADD DUP3 SSTORE SWAP1 DUP4 MSTORE SWAP2 KECCAK256 ADD PUSH2 0x441 DUP3 DUP5 DUP4 PUSH2 0x1094 JUMP JUMPDEST POP PUSH1 0x0 DUP4 DUP2 MSTORE PUSH1 0x2 PUSH1 0x20 MSTORE PUSH1 0x40 DUP2 KECCAK256 SLOAD PUSH2 0x45D SWAP1 PUSH1 0x1 SWAP1 PUSH2 0x1155 JUMP JUMPDEST SWAP1 POP PUSH32 0xBE5622DA9E0689F3B8C369A9913DB27A1E1A165852981F807E29007BD88871A DUP5 DUP3 DUP6 DUP6 SWAP1 POP DUP7 DUP7 PUSH1 0x40 MLOAD PUSH2 0x496 SWAP3 SWAP2 SWAP1 PUSH2 0x1176 JUMP JUMPDEST PUSH1 0x40 DUP1 MLOAD SWAP2 DUP3 SWAP1 SUB DUP3 KECCAK256 SWAP5 DUP3 MSTORE PUSH1 0x20 DUP3 ADD SWAP4 SWAP1 SWAP4 MSTORE SWAP2 DUP3 ADD MSTORE PUSH1 0x60 DUP2 ADD SWAP2 SWAP1 SWAP2 MSTORE CALLER PUSH1 0x80 DUP3 ADD MSTORE TIMESTAMP PUSH1 0xA0 DUP3 ADD MSTORE PUSH1 0xC0 ADD PUSH1 0x40 MLOAD DUP1 SWAP2 SUB SWAP1 LOG1 POP POP POP POP JUMP JUMPDEST PUSH1 0x0 DUP2 DUP2 MSTORE PUSH1 0x20 DUP2 DUP2 MSTORE PUSH1 0x40 SWAP2 DUP3 SWAP1 KECCAK256 PUSH1 0x3 DUP2 ADD DUP1 SLOAD PUSH1 0xFF NOT AND PUSH1 0x2 OR SWAP1 SSTORE DUP3 MLOAD DUP5 DUP2 MSTORE CALLER SWAP3 DUP2 ADD SWAP3 SWAP1 SWAP3 MSTORE TIMESTAMP SWAP3 DUP3 ADD SWAP3 SWAP1 SWAP3 MSTORE PUSH32 0x7060996319A743911FA38FCB4F926382972B1BCD6ABEEA1BD65ADEB620D5DFDF SWAP1 PUSH1 0x60 ADD PUSH2 0x38B JUMP JUMPDEST PUSH1 0x0 DUP3 DUP2 MSTORE PUSH1 0x3 PUSH1 0x20 MSTORE PUSH1 0x40 SWAP1 KECCAK256 DUP1 SLOAD PUSH1 0x60 SWAP2 PUSH2 0x573 SWAP2 DUP5 SWAP1 DUP2 LT PUSH2 0x559 JUMPI PUSH2 0x559 PUSH2 0xFCF JUMP JUMPDEST PUSH1 0x0 SWAP2 DUP3 MSTORE PUSH1 0x20 SWAP1 SWAP2 KECCAK256 ADD SLOAD PUSH1 0x1 PUSH1 0x1 PUSH1 0xA0 SHL SUB AND PUSH2 0xB9F JUMP JUMPDEST SWAP4 SWAP3 POP POP POP JUMP JUMPDEST PUSH1 0x0 DUP2 DUP2 MSTORE PUSH1 0x1 PUSH1 0x20 SWAP1 DUP2 MSTORE PUSH1 0x40 SWAP2 DUP3 SWAP1 KECCAK256 DUP1 SLOAD DUP4 MLOAD DUP2 DUP5 MUL DUP2 ADD DUP5 ADD SWAP1 SWAP5 MSTORE DUP1 DUP5 MSTORE PUSH1 0x60 SWAP4 SWAP3 DUP4 ADD DUP3 DUP3 DUP1 ISZERO PUSH2 0x5D0 JUMPI PUSH1 0x20 MUL DUP3 ADD SWAP2 SWAP1 PUSH1 0x0 MSTORE PUSH1 0x20 PUSH1 0x0 KECCAK256 SWAP1 JUMPDEST DUP2 SLOAD DUP2 MSTORE PUSH1 0x20 ADD SWAP1 PUSH1 0x1 ADD SWAP1 DUP1 DUP4 GT PUSH2 0x5BC JUMPI JUMPDEST POP POP POP POP POP SWAP1 POP SWAP2 SWAP1 POP JUMP JUMPDEST PUSH1 0x0 DUP3 DUP2 MSTORE PUSH1 0x20 DUP2 SWAP1 MSTORE PUSH1 0x40 SWAP1 KECCAK256 PUSH1 0x3 ADD SLOAD PUSH2 0x100 SWAP1 DIV PUSH1 0x1 PUSH1 0x1 PUSH1 0xA0 SHL SUB AND PUSH2 0x618 JUMPI PUSH1 0x40 MLOAD PUSH3 0x461BCD PUSH1 0xE5 SHL DUP2 MSTORE PUSH1 0x4 ADD PUSH2 0x40F SWAP1 PUSH2 0x1019 JUMP JUMPDEST PUSH1 0x0 DUP3 DUP2 MSTORE PUSH1 0x1 PUSH1 0x20 DUP2 DUP2 MSTORE PUSH1 0x40 DUP1 DUP5 KECCAK256 DUP1 SLOAD SWAP4 DUP5 ADD DUP2 SSTORE DUP5 MSTORE SWAP3 DUP2 SWAP1 KECCAK256 SWAP1 SWAP2 ADD DUP4 SWAP1 SSTORE DUP2 MLOAD DUP5 DUP2 MSTORE SWAP1 DUP2 ADD DUP4 SWAP1 MSTORE CALLER SWAP2 DUP2 ADD SWAP2 SWAP1 SWAP2 MSTORE TIMESTAMP PUSH1 0x60 DUP3 ADD MSTORE PUSH32 0x63B8E0B5ACBDBFBD5249311047430B7E5BD42DF5FFC4523D2C08D5157F3ADCE0 SWAP1 PUSH1 0x80 ADD PUSH2 0x38B JUMP JUMPDEST PUSH1 0x0 DUP4 DUP2 MSTORE PUSH1 0x20 DUP2 SWAP1 MSTORE PUSH1 0x40 SWAP1 KECCAK256 PUSH1 0x3 ADD SLOAD PUSH2 0x100 SWAP1 DIV PUSH1 0x1 PUSH1 0x1 PUSH1 0xA0 SHL SUB AND PUSH2 0x6BB JUMPI PUSH1 0x40 MLOAD PUSH3 0x461BCD PUSH1 0xE5 SHL DUP2 MSTORE PUSH1 0x4 ADD PUSH2 0x40F SWAP1 PUSH2 0x1019 JUMP JUMPDEST PUSH1 0x0 JUMPDEST DUP2 DUP2 LT ISZERO PUSH2 0x842 JUMPI PUSH1 0x0 PUSH2 0x729 DUP5 DUP5 DUP5 DUP2 DUP2 LT PUSH2 0x6DD JUMPI PUSH2 0x6DD PUSH2 0xFCF JUMP JUMPDEST SWAP1 POP PUSH1 0x20 MUL DUP2 ADD SWAP1 PUSH2 0x6EF SWAP2 SWAP1 PUSH2 0x1186 JUMP JUMPDEST DUP1 DUP1 PUSH1 0x1F ADD PUSH1 0x20 DUP1 SWAP2 DIV MUL PUSH1 0x20 ADD PUSH1 0x40 MLOAD SWAP1 DUP2 ADD PUSH1 0x40 MSTORE DUP1 SWAP4 SWAP3 SWAP2 SWAP1 DUP2 DUP2 MSTORE PUSH1 0x20 ADD DUP4 DUP4 DUP1 DUP3 DUP5 CALLDATACOPY PUSH1 0x0 SWAP3 ADD SWAP2 SWAP1 SWAP2 MSTORE POP PUSH2 0xC1B SWAP3 POP POP POP JUMP JUMPDEST PUSH1 0x0 DUP7 DUP2 MSTORE PUSH1 0x3 PUSH1 0x20 SWAP1 DUP2 MSTORE PUSH1 0x40 DUP3 KECCAK256 DUP1 SLOAD PUSH1 0x1 DUP1 DUP3 ADD DUP4 SSTORE DUP3 DUP6 MSTORE SWAP3 DUP5 KECCAK256 ADD DUP1 SLOAD PUSH1 0x1 PUSH1 0x1 PUSH1 0xA0 SHL SUB NOT AND PUSH1 0x1 PUSH1 0x1 PUSH1 0xA0 SHL SUB DUP7 AND OR SWAP1 SSTORE SWAP2 DUP9 SWAP1 MSTORE SWAP1 SLOAD SWAP2 SWAP3 POP PUSH32 0x30FED3B2BB9B506B54AFD4B2616962EDEC33BE4DC957C6D84185E735F44737E5 SWAP2 DUP8 SWAP2 PUSH2 0x798 SWAP2 PUSH2 0x1155 JUMP JUMPDEST DUP4 DUP8 DUP8 DUP8 DUP2 DUP2 LT PUSH2 0x7AB JUMPI PUSH2 0x7AB PUSH2 0xFCF JUMP JUMPDEST SWAP1 POP PUSH1 0x20 MUL DUP2 ADD SWAP1 PUSH2 0x7BD SWAP2 SWAP1 PUSH2 0x1186 JUMP JUMPDEST SWAP1 POP DUP9 DUP9 DUP9 DUP2 DUP2 LT PUSH2 0x7D1 JUMPI PUSH2 0x7D1 PUSH2 0xFCF JUMP JUMPDEST SWAP1 POP PUSH1 0x20 MUL DUP2 ADD SWAP1 PUSH2 0x7E3 SWAP2 SWAP1 PUSH2 0x1186 JUMP JUMPDEST PUSH1 0x40 MLOAD PUSH2 0x7F1 SWAP3 SWAP2 SWAP1 PUSH2 0x1176 JUMP JUMPDEST PUSH1 0x40 DUP1 MLOAD SWAP2 DUP3 SWAP1 SUB DUP3 KECCAK256 SWAP6 DUP3 MSTORE PUSH1 0x20 DUP3 ADD SWAP5 SWAP1 SWAP5 MSTORE PUSH1 0x1 PUSH1 0x1 PUSH1 0xA0 SHL SUB SWAP3 SWAP1 SWAP3 AND DUP3 DUP5 ADD MSTORE PUSH1 0x60 DUP3 ADD MSTORE PUSH1 0x80 DUP2 ADD SWAP3 SWAP1 SWAP3 MSTORE CALLER PUSH1 0xA0 DUP4 ADD MSTORE TIMESTAMP PUSH1 0xC0 DUP4 ADD MSTORE MLOAD SWAP1 DUP2 SWAP1 SUB PUSH1 0xE0 ADD SWAP1 LOG1 POP PUSH1 0x1 ADD PUSH2 0x6BE JUMP JUMPDEST POP POP POP POP JUMP JUMPDEST PUSH1 0x0 DUP5 DUP2 MSTORE PUSH1 0x20 DUP2 SWAP1 MSTORE PUSH1 0x40 SWAP1 KECCAK256 DUP4 DUP2 SSTORE PUSH1 0x1 DUP2 ADD PUSH2 0x867 DUP5 DUP3 PUSH2 0x11D4 JUMP JUMPDEST POP PUSH1 0x2 DUP2 ADD PUSH2 0x876 DUP4 DUP3 PUSH2 0x11D4 JUMP JUMPDEST POP PUSH1 0x3 DUP2 ADD DUP1 SLOAD PUSH2 0x100 CALLER SWAP1 DUP2 MUL PUSH1 0x1 PUSH1 0x1 PUSH1 0xA8 SHL SUB NOT SWAP1 SWAP3 AND SWAP2 SWAP1 SWAP2 OR PUSH1 0x1 OR SWAP1 SWAP2 SSTORE PUSH1 0x40 MLOAD PUSH32 0x291A23C70BDED62842399090CF50918C0254DD7A56B2F12CB637AD71DF5EBEC8 SWAP2 PUSH2 0x8D2 SWAP2 DUP9 SWAP2 DUP9 SWAP2 DUP9 SWAP2 DUP9 SWAP2 TIMESTAMP SWAP1 PUSH2 0x1294 JUMP JUMPDEST PUSH1 0x40 MLOAD DUP1 SWAP2 SUB SWAP1 LOG1 POP POP POP POP POP JUMP JUMPDEST PUSH1 0x0 PUSH1 0x20 DUP2 SWAP1 MSTORE SWAP1 DUP2 MSTORE PUSH1 0x40 SWAP1 KECCAK256 DUP1 SLOAD PUSH1 0x1 DUP3 ADD DUP1 SLOAD SWAP2 SWAP3 SWAP2 PUSH2 0x903 SWAP1 PUSH2 0xFE5 JUMP JUMPDEST DUP1 PUSH1 0x1F ADD PUSH1 0x20 DUP1 SWAP2 DIV MUL PUSH1 0x20 ADD PUSH1 0x40 MLOAD SWAP1 DUP2 ADD PUSH1 0x40 MSTORE DUP1 SWAP3 SWAP2 SWAP1 DUP2 DUP2 MSTORE PUSH1 0x20 ADD DUP3 DUP1 SLOAD PUSH2 0x92F SWAP1 PUSH2 0xFE5 JUMP JUMPDEST DUP1 ISZERO PUSH2 0x97C JUMPI DUP1 PUSH1 0x1F LT PUSH2 0x951 JUMPI PUSH2 0x100 DUP1 DUP4 SLOAD DIV MUL DUP4 MSTORE SWAP2 PUSH1 0x20 ADD SWAP2 PUSH2 0x97C JUMP JUMPDEST DUP3 ADD SWAP2 SWAP1 PUSH1 0x0 MSTORE PUSH1 0x20 PUSH1 0x0 KECCAK256 SWAP1 JUMPDEST DUP2 SLOAD DUP2 MSTORE SWAP1 PUSH1 0x1 ADD SWAP1 PUSH1 0x20 ADD DUP1 DUP4 GT PUSH2 0x95F JUMPI DUP3 SWAP1 SUB PUSH1 0x1F AND DUP3 ADD SWAP2 JUMPDEST POP POP POP POP POP SWAP1 DUP1 PUSH1 0x2 ADD DUP1 SLOAD PUSH2 0x991 SWAP1 PUSH2 0xFE5 JUMP JUMPDEST DUP1 PUSH1 0x1F ADD PUSH1 0x20 DUP1 SWAP2 DIV MUL PUSH1 0x20 ADD PUSH1 0x40 MLOAD SWAP1 DUP2 ADD PUSH1 0x40 MSTORE DUP1 SWAP3 SWAP2 SWAP1 DUP2 DUP2 MSTORE PUSH1 0x20 ADD DUP3 DUP1 SLOAD PUSH2 0x9BD SWAP1 PUSH2 0xFE5 JUMP JUMPDEST DUP1 ISZERO PUSH2 0xA0A JUMPI DUP1 PUSH1 0x1F LT PUSH2 0x9DF JUMPI PUSH2 0x100 DUP1 DUP4 SLOAD DIV MUL DUP4 MSTORE SWAP2 PUSH1 0x20 ADD SWAP2 PUSH2 0xA0A JUMP JUMPDEST DUP3 ADD SWAP2 SWAP1 PUSH1 0x0 MSTORE PUSH1 0x20 PUSH1 0x0 KECCAK256 SWAP1 JUMPDEST DUP2 SLOAD DUP2 MSTORE SWAP1 PUSH1 0x1 ADD SWAP1 PUSH1 0x20 ADD DUP1 DUP4 GT PUSH2 0x9ED JUMPI DUP3 SWAP1 SUB PUSH1 0x1F AND DUP3 ADD SWAP2 JUMPDEST POP POP POP PUSH1 0x3 SWAP1 SWAP4 ADD SLOAD SWAP2 SWAP3 POP POP PUSH1 0xFF DUP2 AND SWAP1 PUSH1 0x1 PUSH1 0x1 PUSH1 0xA0 SHL SUB PUSH2 0x100 SWAP1 SWAP2 DIV AND DUP6 JUMP JUMPDEST PUSH1 0x0 DUP4 DUP2 MSTORE PUSH1 0x20 DUP2 SWAP1 MSTORE PUSH1 0x40 SWAP1 KECCAK256 PUSH1 0x3 ADD SLOAD PUSH2 0x100 SWAP1 DIV PUSH1 0x1 PUSH1 0x1 PUSH1 0xA0 SHL SUB AND PUSH2 0xA6A JUMPI PUSH1 0x40 MLOAD PUSH3 0x461BCD PUSH1 0xE5 SHL DUP2 MSTORE PUSH1 0x4 ADD PUSH2 0x40F SWAP1 PUSH2 0x1019 JUMP JUMPDEST PUSH1 0x0 JUMPDEST DUP2 DUP2 LT ISZERO PUSH2 0x842 JUMPI PUSH1 0x0 DUP5 DUP2 MSTORE PUSH1 0x2 PUSH1 0x20 MSTORE PUSH1 0x40 SWAP1 KECCAK256 DUP4 DUP4 DUP4 DUP2 DUP2 LT PUSH2 0xA95 JUMPI PUSH2 0xA95 PUSH2 0xFCF JUMP JUMPDEST SWAP1 POP PUSH1 0x20 MUL DUP2 ADD SWAP1 PUSH2 0xAA7 SWAP2 SWAP1 PUSH2 0x1186 JUMP JUMPDEST DUP3 SLOAD PUSH1 0x1 DUP2 ADD DUP5 SSTORE PUSH1 0x0 SWAP4 DUP5 MSTORE PUSH1 0x20 SWAP1 SWAP4 KECCAK256 SWAP1 SWAP3 ADD SWAP2 PUSH2 0xAC7 SWAP2 DUP4 PUSH2 0x1094 JUMP JUMPDEST POP PUSH1 0x0 DUP5 DUP2 MSTORE PUSH1 0x2 PUSH1 0x20 MSTORE PUSH1 0x40 SWAP1 KECCAK256 SLOAD PUSH32 0xBE5622DA9E0689F3B8C369A9913DB27A1E1A165852981F807E29007BD88871A SWAP1 DUP6 SWAP1 PUSH2 0xB07 SWAP1 PUSH1 0x1 SWAP1 PUSH2 0x1155 JUMP JUMPDEST DUP6 DUP6 DUP6 DUP2 DUP2 LT PUSH2 0xB19 JUMPI PUSH2 0xB19 PUSH2 0xFCF JUMP JUMPDEST SWAP1 POP PUSH1 0x20 MUL DUP2 ADD SWAP1 PUSH2 0xB2B SWAP2 SWAP1 PUSH2 0x1186 JUMP JUMPDEST SWAP1 POP DUP7 DUP7 DUP7 DUP2 DUP2 LT PUSH2 0xB3F JUMPI PUSH2 0xB3F PUSH2 0xFCF JUMP JUMPDEST SWAP1 POP PUSH1 0x20 MUL DUP2 ADD SWAP1 PUSH2 0xB51 SWAP2 SWAP1 PUSH2 0x1186 JUMP JUMPDEST PUSH1 0x40 MLOAD PUSH2 0xB5F SWAP3 SWAP2 SWAP1 PUSH2 0x1176 JUMP JUMPDEST PUSH1 0x40 DUP1 MLOAD SWAP2 DUP3 SWAP1 SUB DUP3 KECCAK256 SWAP5 DUP3 MSTORE PUSH1 0x20 DUP3 ADD SWAP4 SWAP1 SWAP4 MSTORE SWAP2 DUP3 ADD MSTORE PUSH1 0x60 DUP2 ADD SWAP2 SWAP1 SWAP2 MSTORE CALLER PUSH1 0x80 DUP3 ADD MSTORE TIMESTAMP PUSH1 0xA0 DUP3 ADD MSTORE PUSH1 0xC0 ADD PUSH1 0x40 MLOAD DUP1 SWAP2 SUB SWAP1 LOG1 PUSH1 0x1 ADD PUSH2 0xA6D JUMP JUMPDEST PUSH1 0x60 DUP2 EXTCODESIZE PUSH1 0x0 DUP2 SWAP1 SUB PUSH2 0xBC2 JUMPI POP POP PUSH1 0x40 DUP1 MLOAD PUSH1 0x20 DUP2 ADD SWAP1 SWAP2 MSTORE PUSH1 0x0 DUP2 MSTORE SWAP2 SWAP1 POP JUMP JUMPDEST PUSH1 0x0 NOT ADD DUP1 PUSH8 0xFFFFFFFFFFFFFFFF DUP2 GT ISZERO PUSH2 0xBDF JUMPI PUSH2 0xBDF PUSH2 0xE48 JUMP JUMPDEST PUSH1 0x40 MLOAD SWAP1 DUP1 DUP3 MSTORE DUP1 PUSH1 0x1F ADD PUSH1 0x1F NOT AND PUSH1 0x20 ADD DUP3 ADD PUSH1 0x40 MSTORE DUP1 ISZERO PUSH2 0xC09 JUMPI PUSH1 0x20 DUP3 ADD DUP2 DUP1 CALLDATASIZE DUP4 CALLDATACOPY ADD SWAP1 POP JUMPDEST POP SWAP2 POP DUP1 PUSH1 0x1 PUSH1 0x20 DUP5 ADD DUP6 EXTCODECOPY POP SWAP2 SWAP1 POP JUMP JUMPDEST PUSH1 0x0 DUP1 PUSH1 0x0 PUSH1 0xF8 SHL DUP4 PUSH1 0x40 MLOAD PUSH1 0x20 ADD PUSH2 0xC35 SWAP3 SWAP2 SWAP1 PUSH2 0x12E4 JUMP JUMPDEST PUSH1 0x40 MLOAD PUSH1 0x20 DUP2 DUP4 SUB SUB DUP2 MSTORE SWAP1 PUSH1 0x40 MSTORE SWAP1 POP DUP1 MLOAD PUSH1 0x20 DUP3 ADD PUSH1 0x0 CREATE SWAP2 POP PUSH1 0x1 PUSH1 0x1 PUSH1 0xA0 SHL SUB DUP3 AND PUSH2 0xC78 JUMPI PUSH1 0x40 MLOAD PUSH4 0x46A55DB PUSH1 0xE1 SHL DUP2 MSTORE PUSH1 0x4 ADD PUSH1 0x40 MLOAD DUP1 SWAP2 SUB SWAP1 REVERT JUMPDEST POP SWAP2 SWAP1 POP JUMP JUMPDEST PUSH1 0x0 DUP1 PUSH1 0x40 DUP4 DUP6 SUB SLT ISZERO PUSH2 0xC91 JUMPI PUSH1 0x0 DUP1 REVERT JUMPDEST POP POP DUP1 CALLDATALOAD SWAP3 PUSH1 0x20 SWAP1 SWAP2 ADD CALLDATALOAD SWAP2 POP JUMP JUMPDEST PUSH1 0x0 JUMPDEST DUP4 DUP2 LT ISZERO PUSH2 0xCBB JUMPI DUP2 DUP2 ADD MLOAD DUP4 DUP3 ADD MSTORE PUSH1 0x20 ADD PUSH2 0xCA3 JUMP JUMPDEST POP POP PUSH1 0x0 SWAP2 ADD MSTORE JUMP JUMPDEST PUSH1 0x0 DUP2 MLOAD DUP1 DUP5 MSTORE PUSH2 0xCDC DUP2 PUSH1 0x20 DUP7 ADD PUSH1 0x20 DUP7 ADD PUSH2 0xCA0 JUMP JUMPDEST PUSH1 0x1F ADD PUSH1 0x1F NOT AND SWAP3 SWAP1 SWAP3 ADD PUSH1 0x20 ADD SWAP3 SWAP2 POP POP JUMP JUMPDEST PUSH1 0x20 DUP2 MSTORE PUSH1 0x0 PUSH2 0x573 PUSH1 0x20 DUP4 ADD DUP5 PUSH2 0xCC4 JUMP JUMPDEST PUSH1 0x0 PUSH1 0x20 DUP3 DUP5 SUB SLT ISZERO PUSH2 0xD15 JUMPI PUSH1 0x0 DUP1 REVERT JUMPDEST POP CALLDATALOAD SWAP2 SWAP1 POP JUMP JUMPDEST PUSH1 0x0 DUP1 PUSH1 0x0 PUSH1 0x40 DUP5 DUP7 SUB SLT ISZERO PUSH2 0xD31 JUMPI PUSH1 0x0 DUP1 REVERT JUMPDEST DUP4 CALLDATALOAD SWAP3 POP PUSH1 0x20 DUP5 ADD CALLDATALOAD PUSH8 0xFFFFFFFFFFFFFFFF DUP1 DUP3 GT ISZERO PUSH2 0xD50 JUMPI PUSH1 0x0 DUP1 REVERT JUMPDEST DUP2 DUP7 ADD SWAP2 POP DUP7 PUSH1 0x1F DUP4 ADD SLT PUSH2 0xD64 JUMPI PUSH1 0x0 DUP1 REVERT JUMPDEST DUP2 CALLDATALOAD DUP2 DUP2 GT ISZERO PUSH2 0xD73 JUMPI PUSH1 0x0 DUP1 REVERT JUMPDEST DUP8 PUSH1 0x20 DUP3 DUP6 ADD ADD GT ISZERO PUSH2 0xD85 JUMPI PUSH1 0x0 DUP1 REVERT JUMPDEST PUSH1 0x20 DUP4 ADD SWAP5 POP DUP1 SWAP4 POP POP POP POP SWAP3 POP SWAP3 POP SWAP3 JUMP JUMPDEST PUSH1 0x20 DUP1 DUP3 MSTORE DUP3 MLOAD DUP3 DUP3 ADD DUP2 SWAP1 MSTORE PUSH1 0x0 SWAP2 SWAP1 DUP5 DUP3 ADD SWAP1 PUSH1 0x40 DUP6 ADD SWAP1 DUP5 JUMPDEST DUP2 DUP2 LT ISZERO PUSH2 0xDD0 JUMPI DUP4 MLOAD DUP4 MSTORE SWAP3 DUP5 ADD SWAP3 SWAP2 DUP5 ADD SWAP2 PUSH1 0x1 ADD PUSH2 0xDB4 JUMP JUMPDEST POP SWAP1 SWAP7 SWAP6 POP POP POP POP POP POP JUMP JUMPDEST PUSH1 0x0 DUP1 PUSH1 0x0 PUSH1 0x40 DUP5 DUP7 SUB SLT ISZERO PUSH2 0xDF1 JUMPI PUSH1 0x0 DUP1 REVERT JUMPDEST DUP4 CALLDATALOAD SWAP3 POP PUSH1 0x20 DUP5 ADD CALLDATALOAD PUSH8 0xFFFFFFFFFFFFFFFF DUP1 DUP3 GT ISZERO PUSH2 0xE10 JUMPI PUSH1 0x0 DUP1 REVERT JUMPDEST DUP2 DUP7 ADD SWAP2 POP DUP7 PUSH1 0x1F DUP4 ADD SLT PUSH2 0xE24 JUMPI PUSH1 0x0 DUP1 REVERT JUMPDEST DUP2 CALLDATALOAD DUP2 DUP2 GT ISZERO PUSH2 0xE33 JUMPI PUSH1 0x0 DUP1 REVERT JUMPDEST DUP8 PUSH1 0x20 DUP3 PUSH1 0x5 SHL DUP6 ADD ADD GT ISZERO PUSH2 0xD85 JUMPI PUSH1 0x0 DUP1 REVERT JUMPDEST PUSH4 0x4E487B71 PUSH1 0xE0 SHL PUSH1 0x0 MSTORE PUSH1 0x41 PUSH1 0x4 MSTORE PUSH1 0x24 PUSH1 0x0 REVERT JUMPDEST PUSH1 0x0 DUP3 PUSH1 0x1F DUP4 ADD SLT PUSH2 0xE6F JUMPI PUSH1 0x0 DUP1 REVERT JUMPDEST DUP2 CALLDATALOAD PUSH8 0xFFFFFFFFFFFFFFFF DUP1 DUP3 GT ISZERO PUSH2 0xE8A JUMPI PUSH2 0xE8A PUSH2 0xE48 JUMP JUMPDEST PUSH1 0x40 MLOAD PUSH1 0x1F DUP4 ADD PUSH1 0x1F NOT SWAP1 DUP2 AND PUSH1 0x3F ADD AND DUP2 ADD SWAP1 DUP3 DUP3 GT DUP2 DUP4 LT OR ISZERO PUSH2 0xEB2 JUMPI PUSH2 0xEB2 PUSH2 0xE48 JUMP JUMPDEST DUP2 PUSH1 0x40 MSTORE DUP4 DUP2 MSTORE DUP7 PUSH1 0x20 DUP6 DUP9 ADD ADD GT ISZERO PUSH2 0xECB JUMPI PUSH1 0x0 DUP1 REVERT JUMPDEST DUP4 PUSH1 0x20 DUP8 ADD PUSH1 0x20 DUP4 ADD CALLDATACOPY PUSH1 0x0 PUSH1 0x20 DUP6 DUP4 ADD ADD MSTORE DUP1 SWAP5 POP POP POP POP POP SWAP3 SWAP2 POP POP JUMP JUMPDEST PUSH1 0x0 DUP1 PUSH1 0x0 DUP1 PUSH1 0x80 DUP6 DUP8 SUB SLT ISZERO PUSH2 0xF01 JUMPI PUSH1 0x0 DUP1 REVERT JUMPDEST DUP5 CALLDATALOAD SWAP4 POP PUSH1 0x20 DUP6 ADD CALLDATALOAD SWAP3 POP PUSH1 0x40 DUP6 ADD CALLDATALOAD PUSH8 0xFFFFFFFFFFFFFFFF DUP1 DUP3 GT ISZERO PUSH2 0xF27 JUMPI PUSH1 0x0 DUP1 REVERT JUMPDEST PUSH2 0xF33 DUP9 DUP4 DUP10 ADD PUSH2 0xE5E JUMP JUMPDEST SWAP4 POP PUSH1 0x60 DUP8 ADD CALLDATALOAD SWAP2 POP DUP1 DUP3 GT ISZERO PUSH2 0xF49 JUMPI PUSH1 0x0 DUP1 REVERT JUMPDEST POP PUSH2 0xF56 DUP8 DUP3 DUP9 ADD PUSH2 0xE5E JUMP JUMPDEST SWAP2 POP POP SWAP3 SWAP6 SWAP2 SWAP5 POP SWAP3 POP JUMP JUMPDEST DUP6 DUP2 MSTORE PUSH1 0xA0 PUSH1 0x20 DUP3 ADD MSTORE PUSH1 0x0 PUSH2 0xF7B PUSH1 0xA0 DUP4 ADD DUP8 PUSH2 0xCC4 JUMP JUMPDEST DUP3 DUP2 SUB PUSH1 0x40 DUP5 ADD MSTORE PUSH2 0xF8D DUP2 DUP8 PUSH2 0xCC4 JUMP JUMPDEST SWAP2 POP POP PUSH1 0x4 DUP5 LT PUSH2 0xFAE JUMPI PUSH4 0x4E487B71 PUSH1 0xE0 SHL PUSH1 0x0 MSTORE PUSH1 0x21 PUSH1 0x4 MSTORE PUSH1 0x24 PUSH1 0x0 REVERT JUMPDEST PUSH1 0x60 DUP3 ADD SWAP4 SWAP1 SWAP4 MSTORE PUSH1 0x1 PUSH1 0x1 PUSH1 0xA0 SHL SUB SWAP2 SWAP1 SWAP2 AND PUSH1 0x80 SWAP1 SWAP2 ADD MSTORE SWAP4 SWAP3 POP POP POP JUMP JUMPDEST PUSH4 0x4E487B71 PUSH1 0xE0 SHL PUSH1 0x0 MSTORE PUSH1 0x32 PUSH1 0x4 MSTORE PUSH1 0x24 PUSH1 0x0 REVERT JUMPDEST PUSH1 0x1 DUP2 DUP2 SHR SWAP1 DUP3 AND DUP1 PUSH2 0xFF9 JUMPI PUSH1 0x7F DUP3 AND SWAP2 POP JUMPDEST PUSH1 0x20 DUP3 LT DUP2 SUB PUSH2 0xC78 JUMPI PUSH4 0x4E487B71 PUSH1 0xE0 SHL PUSH1 0x0 MSTORE PUSH1 0x22 PUSH1 0x4 MSTORE PUSH1 0x24 PUSH1 0x0 REVERT JUMPDEST PUSH1 0x20 DUP1 DUP3 MSTORE PUSH1 0x10 SWAP1 DUP3 ADD MSTORE PUSH16 0x14D55495915657D393D517D193D55391 PUSH1 0x82 SHL PUSH1 0x40 DUP3 ADD MSTORE PUSH1 0x60 ADD SWAP1 JUMP JUMPDEST PUSH1 0x1F DUP3 GT ISZERO PUSH2 0x108F JUMPI PUSH1 0x0 DUP2 PUSH1 0x0 MSTORE PUSH1 0x20 PUSH1 0x0 KECCAK256 PUSH1 0x1F DUP6 ADD PUSH1 0x5 SHR DUP2 ADD PUSH1 0x20 DUP7 LT ISZERO PUSH2 0x106C JUMPI POP DUP1 JUMPDEST PUSH1 0x1F DUP6 ADD PUSH1 0x5 SHR DUP3 ADD SWAP2 POP JUMPDEST DUP2 DUP2 LT ISZERO PUSH2 0x108B JUMPI DUP3 DUP2 SSTORE PUSH1 0x1 ADD PUSH2 0x1078 JUMP JUMPDEST POP POP POP JUMPDEST POP POP POP JUMP JUMPDEST PUSH8 0xFFFFFFFFFFFFFFFF DUP4 GT ISZERO PUSH2 0x10AC JUMPI PUSH2 0x10AC PUSH2 0xE48 JUMP JUMPDEST PUSH2 0x10C0 DUP4 PUSH2 0x10BA DUP4 SLOAD PUSH2 0xFE5 JUMP JUMPDEST DUP4 PUSH2 0x1043 JUMP JUMPDEST PUSH1 0x0 PUSH1 0x1F DUP5 GT PUSH1 0x1 DUP2 EQ PUSH2 0x10F4 JUMPI PUSH1 0x0 DUP6 ISZERO PUSH2 0x10DC JUMPI POP DUP4 DUP3 ADD CALLDATALOAD JUMPDEST PUSH1 0x0 NOT PUSH1 0x3 DUP8 SWAP1 SHL SHR NOT AND PUSH1 0x1 DUP7 SWAP1 SHL OR DUP4 SSTORE PUSH2 0x114E JUMP JUMPDEST PUSH1 0x0 DUP4 DUP2 MSTORE PUSH1 0x20 SWAP1 KECCAK256 PUSH1 0x1F NOT DUP7 AND SWAP1 DUP4 JUMPDEST DUP3 DUP2 LT ISZERO PUSH2 0x1125 JUMPI DUP7 DUP6 ADD CALLDATALOAD DUP3 SSTORE PUSH1 0x20 SWAP5 DUP6 ADD SWAP5 PUSH1 0x1 SWAP1 SWAP3 ADD SWAP2 ADD PUSH2 0x1105 JUMP JUMPDEST POP DUP7 DUP3 LT ISZERO PUSH2 0x1142 JUMPI PUSH1 0x0 NOT PUSH1 0xF8 DUP9 PUSH1 0x3 SHL AND SHR NOT DUP5 DUP8 ADD CALLDATALOAD AND DUP2 SSTORE JUMPDEST POP POP PUSH1 0x1 DUP6 PUSH1 0x1 SHL ADD DUP4 SSTORE JUMPDEST POP POP POP POP POP JUMP JUMPDEST DUP2 DUP2 SUB DUP2 DUP2 GT ISZERO PUSH2 0x329 JUMPI PUSH4 0x4E487B71 PUSH1 0xE0 SHL PUSH1 0x0 MSTORE PUSH1 0x11 PUSH1 0x4 MSTORE PUSH1 0x24 PUSH1 0x0 REVERT JUMPDEST DUP2 DUP4 DUP3 CALLDATACOPY PUSH1 0x0 SWAP2 ADD SWAP1 DUP2 MSTORE SWAP2 SWAP1 POP JUMP JUMPDEST PUSH1 0x0 DUP1 DUP4 CALLDATALOAD PUSH1 0x1E NOT DUP5 CALLDATASIZE SUB ADD DUP2 SLT PUSH2 0x119D JUMPI PUSH1 0x0 DUP1 REVERT JUMPDEST DUP4 ADD DUP1 CALLDATALOAD SWAP2 POP PUSH8 0xFFFFFFFFFFFFFFFF DUP3 GT ISZERO PUSH2 0x11B8 JUMPI PUSH1 0x0 DUP1 REVERT JUMPDEST PUSH1 0x20 ADD SWAP2 POP CALLDATASIZE DUP2 SWAP1 SUB DUP3 SGT ISZERO PUSH2 0x11CD JUMPI PUSH1 0x0 DUP1 REVERT JUMPDEST SWAP3 POP SWAP3 SWAP1 POP JUMP JUMPDEST DUP2 MLOAD PUSH8 0xFFFFFFFFFFFFFFFF DUP2 GT ISZERO PUSH2 0x11EE JUMPI PUSH2 0x11EE PUSH2 0xE48 JUMP JUMPDEST PUSH2 0x1202 DUP2 PUSH2 0x11FC DUP5 SLOAD PUSH2 0xFE5 JUMP JUMPDEST DUP5 PUSH2 0x1043 JUMP JUMPDEST PUSH1 0x20 DUP1 PUSH1 0x1F DUP4 GT PUSH1 0x1 DUP2 EQ PUSH2 0x1237 JUMPI PUSH1 0x0 DUP5 ISZERO PUSH2 0x121F JUMPI POP DUP6 DUP4 ADD MLOAD JUMPDEST PUSH1 0x0 NOT PUSH1 0x3 DUP7 SWAP1 SHL SHR NOT AND PUSH1 0x1 DUP6 SWAP1 SHL OR DUP6 SSTORE PUSH2 0x108B JUMP JUMPDEST PUSH1 0x0 DUP6 DUP2 MSTORE PUSH1 0x20 DUP2 KECCAK256 PUSH1 0x1F NOT DUP7 AND SWAP2 JUMPDEST DUP3 DUP2 LT ISZERO PUSH2 0x1266 JUMPI DUP9 DUP7 ADD MLOAD DUP3 SSTORE SWAP5 DUP5 ADD SWAP5 PUSH1 0x1 SWAP1 SWAP2 ADD SWAP1 DUP5 ADD PUSH2 0x1247 JUMP JUMPDEST POP DUP6 DUP3 LT ISZERO PUSH2 0x1284 JUMPI DUP8 DUP6 ADD MLOAD PUSH1 0x0 NOT PUSH1 0x3 DUP9 SWAP1 SHL PUSH1 0xF8 AND SHR NOT AND DUP2 SSTORE JUMPDEST POP POP POP POP POP PUSH1 0x1 SWAP1 DUP2 SHL ADD SWAP1 SSTORE POP JUMP JUMPDEST DUP7 DUP2 MSTORE DUP6 PUSH1 0x20 DUP3 ADD MSTORE PUSH1 0xC0 PUSH1 0x40 DUP3 ADD MSTORE PUSH1 0x0 PUSH2 0x12B3 PUSH1 0xC0 DUP4 ADD DUP8 PUSH2 0xCC4 JUMP JUMPDEST DUP3 DUP2 SUB PUSH1 0x60 DUP5 ADD MSTORE PUSH2 0x12C5 DUP2 DUP8 PUSH2 0xCC4 JUMP JUMPDEST PUSH1 0x1 PUSH1 0x1 PUSH1 0xA0 SHL SUB SWAP6 SWAP1 SWAP6 AND PUSH1 0x80 DUP5 ADD MSTORE POP POP PUSH1 0xA0 ADD MSTORE SWAP5 SWAP4 POP POP POP POP JUMP JUMPDEST PUSH1 0x1 PUSH1 0x1 PUSH1 0xF8 SHL SUB NOT DUP4 AND DUP2 MSTORE DUP2 MLOAD PUSH1 0x0 SWAP1 PUSH2 0x1307 DUP2 PUSH1 0x1 DUP6 ADD PUSH1 0x20 DUP8 ADD PUSH2 0xCA0 JUMP JUMPDEST SWAP2 SWAP1 SWAP2 ADD PUSH1 0x1 ADD SWAP4 SWAP3 POP POP POP JUMP INVALID LOG2 PUSH5 0x6970667358 0x22 SLT KECCAK256 SAR 0xC4 DUP5 STATICCALL GASLIMIT NUMBER 0xF9 CALLDATALOAD MLOAD DUP8 STATICCALL DUP1 0xF6 CALLCODE 0xD RETURNDATACOPY 0xAC CALLDATASIZE 0xB4 SWAP12 0xA8 0xD8 PUSH23 0x53FD695E3A34AC72C364736F6C63430008180033000000 "},"methodIdentifiers":{"addEncryptedChunks(uint256,bytes[])":"6cdc8720","addFileChunk(uint256,bytes)":"2afeaf24","addFileChunks(uint256,bytes[])":"af45b6ef","addFileHash(uint256,bytes32)":"64441ac3","getEncryptedChunkCount(uint256)":"337b3b1c","getEncryptedChunkPointer(uint256,uint256)":"1d6f98cc","getFileChunk(uint256,uint256)":"02c0cd81","getFileChunkCount(uint256)":"7284e111","getFileHashes(uint256)":"58a4710e","markApproved(uint256)":"314b9146","markRejected(uint256)":"17bf4879","readEncryptedChunk(uint256,uint256)":"4c7b52eb","recordSubmission(uint256,uint256,string,string)":"84a2acd9","surveys(uint256)":"86e68b90"}}}}}